{
  "_format": "hh-sol-artifact-1",
  "contractName": "DogCoin",
  "sourceName": "contracts/DogCoin.sol",
  "abi": [
    {
      "inputs": [],
      "stateMutability": "nonpayable",
      "type": "constructor"
    },
    {
      "anonymous": false,
      "inputs": [
        {
          "indexed": true,
          "internalType": "address",
          "name": "owner",
          "type": "address"
        },
        {
          "indexed": true,
          "internalType": "address",
          "name": "spender",
          "type": "address"
        },
        {
          "indexed": false,
          "internalType": "uint256",
          "name": "value",
          "type": "uint256"
        }
      ],
      "name": "Approval",
      "type": "event"
    },
    {
      "anonymous": false,
      "inputs": [
        {
          "indexed": true,
          "internalType": "address",
          "name": "from",
          "type": "address"
        },
        {
          "indexed": true,
          "internalType": "address",
          "name": "to",
          "type": "address"
        },
        {
          "indexed": false,
          "internalType": "uint256",
          "name": "value",
          "type": "uint256"
        }
      ],
      "name": "Transfer",
      "type": "event"
    },
    {
      "inputs": [
        {
          "internalType": "address",
          "name": "owner",
          "type": "address"
        },
        {
          "internalType": "address",
          "name": "spender",
          "type": "address"
        }
      ],
      "name": "allowance",
      "outputs": [
        {
          "internalType": "uint256",
          "name": "",
          "type": "uint256"
        }
      ],
      "stateMutability": "view",
      "type": "function"
    },
    {
      "inputs": [
        {
          "internalType": "address",
          "name": "spender",
          "type": "address"
        },
        {
          "internalType": "uint256",
          "name": "amount",
          "type": "uint256"
        }
      ],
      "name": "approve",
      "outputs": [
        {
          "internalType": "bool",
          "name": "",
          "type": "bool"
        }
      ],
      "stateMutability": "nonpayable",
      "type": "function"
    },
    {
      "inputs": [
        {
          "internalType": "address",
          "name": "account",
          "type": "address"
        }
      ],
      "name": "balanceOf",
      "outputs": [
        {
          "internalType": "uint256",
          "name": "",
          "type": "uint256"
        }
      ],
      "stateMutability": "view",
      "type": "function"
    },
    {
      "inputs": [],
      "name": "decimals",
      "outputs": [
        {
          "internalType": "uint8",
          "name": "",
          "type": "uint8"
        }
      ],
      "stateMutability": "view",
      "type": "function"
    },
    {
      "inputs": [
        {
          "internalType": "address",
          "name": "spender",
          "type": "address"
        },
        {
          "internalType": "uint256",
          "name": "subtractedValue",
          "type": "uint256"
        }
      ],
      "name": "decreaseAllowance",
      "outputs": [
        {
          "internalType": "bool",
          "name": "",
          "type": "bool"
        }
      ],
      "stateMutability": "nonpayable",
      "type": "function"
    },
    {
      "inputs": [
        {
          "internalType": "uint256",
          "name": "",
          "type": "uint256"
        }
      ],
      "name": "holders",
      "outputs": [
        {
          "internalType": "address",
          "name": "",
          "type": "address"
        }
      ],
      "stateMutability": "view",
      "type": "function"
    },
    {
      "inputs": [
        {
          "internalType": "address",
          "name": "spender",
          "type": "address"
        },
        {
          "internalType": "uint256",
          "name": "addedValue",
          "type": "uint256"
        }
      ],
      "name": "increaseAllowance",
      "outputs": [
        {
          "internalType": "bool",
          "name": "",
          "type": "bool"
        }
      ],
      "stateMutability": "nonpayable",
      "type": "function"
    },
    {
      "inputs": [],
      "name": "name",
      "outputs": [
        {
          "internalType": "string",
          "name": "",
          "type": "string"
        }
      ],
      "stateMutability": "view",
      "type": "function"
    },
    {
      "inputs": [],
      "name": "symbol",
      "outputs": [
        {
          "internalType": "string",
          "name": "",
          "type": "string"
        }
      ],
      "stateMutability": "view",
      "type": "function"
    },
    {
      "inputs": [],
      "name": "totalSupply",
      "outputs": [
        {
          "internalType": "uint256",
          "name": "",
          "type": "uint256"
        }
      ],
      "stateMutability": "view",
      "type": "function"
    },
    {
      "inputs": [
        {
          "internalType": "address",
          "name": "to",
          "type": "address"
        },
        {
          "internalType": "uint256",
          "name": "amount",
          "type": "uint256"
        }
      ],
      "name": "transfer",
      "outputs": [
        {
          "internalType": "bool",
          "name": "",
          "type": "bool"
        }
      ],
      "stateMutability": "nonpayable",
      "type": "function"
    },
    {
      "inputs": [
        {
          "internalType": "address",
          "name": "from",
          "type": "address"
        },
        {
          "internalType": "address",
          "name": "to",
          "type": "address"
        },
        {
          "internalType": "uint256",
          "name": "amount",
          "type": "uint256"
        }
      ],
      "name": "transferFrom",
      "outputs": [
        {
          "internalType": "bool",
          "name": "",
          "type": "bool"
        }
      ],
      "stateMutability": "nonpayable",
      "type": "function"
    }
  ],
  "bytecode": "0x60806040523480156200001157600080fd5b506040518060400160405280600781526020017f446f67436f696e000000000000000000000000000000000000000000000000008152506040518060400160405280600381526020017f444f470000000000000000000000000000000000000000000000000000000000815250816003908051906020019062000096929190620000b8565b508060049080519060200190620000af929190620000b8565b505050620001cd565b828054620000c69062000168565b90600052602060002090601f016020900481019282620000ea576000855562000136565b82601f106200010557805160ff191683800117855562000136565b8280016001018555821562000136579182015b828111156200013557825182559160200191906001019062000118565b5b50905062000145919062000149565b5090565b5b80821115620001645760008160009055506001016200014a565b5090565b600060028204905060018216806200018157607f821691505b602082108114156200019857620001976200019e565b5b50919050565b7f4e487b7100000000000000000000000000000000000000000000000000000000600052602260045260246000fd5b61140680620001dd6000396000f3fe608060405234801561001057600080fd5b50600436106100b45760003560e01c8063395093511161007157806339509351146101a357806370a08231146101d357806395d89b4114610203578063a457c2d714610221578063a9059cbb14610251578063dd62ed3e14610281576100b4565b806306fdde03146100b9578063095ea7b3146100d757806318160ddd1461010757806323b872dd146101255780632a11ced014610155578063313ce56714610185575b600080fd5b6100c16102b1565b6040516100ce9190610ecc565b60405180910390f35b6100f160048036038101906100ec9190610cc7565b610343565b6040516100fe9190610eb1565b60405180910390f35b61010f610366565b60405161011c9190610fce565b60405180910390f35b61013f600480360381019061013a9190610c78565b610370565b60405161014c9190610eb1565b60405180910390f35b61016f600480360381019061016a9190610d03565b61039f565b60405161017c9190610e96565b60405180910390f35b61018d6103de565b60405161019a9190610fe9565b60405180910390f35b6101bd60048036038101906101b89190610cc7565b6103e7565b6040516101ca9190610eb1565b60405180910390f35b6101ed60048036038101906101e89190610c13565b610491565b6040516101fa9190610fce565b60405180910390f35b61020b6104d9565b6040516102189190610ecc565b60405180910390f35b61023b60048036038101906102369190610cc7565b61056b565b6040516102489190610eb1565b60405180910390f35b61026b60048036038101906102669190610cc7565b610655565b6040516102789190610eb1565b60405180910390f35b61029b60048036038101906102969190610c3c565b610678565b6040516102a89190610fce565b60405180910390f35b6060600380546102c0906110fe565b80601f01602080910402602001604051908101604052809291908181526020018280546102ec906110fe565b80156103395780601f1061030e57610100808354040283529160200191610339565b820191906000526020600020905b81548152906001019060200180831161031c57829003601f168201915b5050505050905090565b60008061034e6106ff565b905061035b818585610707565b600191505092915050565b6000600254905090565b60008061037b6106ff565b90506103888582856108d2565b61039385858561095e565b60019150509392505050565b600581815481106103af57600080fd5b906000526020600020016000915054906101000a900473ffffffffffffffffffffffffffffffffffffffff1681565b60006012905090565b6000806103f26106ff565b9050610486818585600160008673ffffffffffffffffffffffffffffffffffffffff1673ffffffffffffffffffffffffffffffffffffffff16815260200190815260200160002060008973ffffffffffffffffffffffffffffffffffffffff1673ffffffffffffffffffffffffffffffffffffffff168152602001908152602001600020546104819190611020565b610707565b600191505092915050565b60008060008373ffffffffffffffffffffffffffffffffffffffff1673ffffffffffffffffffffffffffffffffffffffff168152602001908152602001600020549050919050565b6060600480546104e8906110fe565b80601f0160208091040260200160405190810160405280929190818152602001828054610514906110fe565b80156105615780601f1061053657610100808354040283529160200191610561565b820191906000526020600020905b81548152906001019060200180831161054457829003601f168201915b5050505050905090565b6000806105766106ff565b90506000600160008373ffffffffffffffffffffffffffffffffffffffff1673ffffffffffffffffffffffffffffffffffffffff16815260200190815260200160002060008673ffffffffffffffffffffffffffffffffffffffff1673ffffffffffffffffffffffffffffffffffffffff1681526020019081526020016000205490508381101561063c576040517f08c379a000000000000000000000000000000000000000000000000000000000815260040161063390610fae565b60405180910390fd5b6106498286868403610707565b60019250505092915050565b6000806106606106ff565b905061066d81858561095e565b600191505092915050565b6000600160008473ffffffffffffffffffffffffffffffffffffffff1673ffffffffffffffffffffffffffffffffffffffff16815260200190815260200160002060008373ffffffffffffffffffffffffffffffffffffffff1673ffffffffffffffffffffffffffffffffffffffff16815260200190815260200160002054905092915050565b600033905090565b600073ffffffffffffffffffffffffffffffffffffffff168373ffffffffffffffffffffffffffffffffffffffff161415610777576040517f08c379a000000000000000000000000000000000000000000000000000000000815260040161076e90610f8e565b60405180910390fd5b600073ffffffffffffffffffffffffffffffffffffffff168273ffffffffffffffffffffffffffffffffffffffff1614156107e7576040517f08c379a00000000000000000000000000000000000000000000000000000000081526004016107de90610f0e565b60405180910390fd5b80600160008573ffffffffffffffffffffffffffffffffffffffff1673ffffffffffffffffffffffffffffffffffffffff16815260200190815260200160002060008473ffffffffffffffffffffffffffffffffffffffff1673ffffffffffffffffffffffffffffffffffffffff168152602001908152602001600020819055508173ffffffffffffffffffffffffffffffffffffffff168373ffffffffffffffffffffffffffffffffffffffff167f8c5be1e5ebec7d5bd14f71427d1e84f3dd0314c0f7b2291e5b200ac8c7c3b925836040516108c59190610fce565b60405180910390a3505050565b60006108de8484610678565b90507fffffffffffffffffffffffffffffffffffffffffffffffffffffffffffffffff8114610958578181101561094a576040517f08c379a000000000000000000000000000000000000000000000000000000000815260040161094190610f2e565b60405180910390fd5b6109578484848403610707565b5b50505050565b600073ffffffffffffffffffffffffffffffffffffffff168373ffffffffffffffffffffffffffffffffffffffff1614156109ce576040517f08c379a00000000000000000000000000000000000000000000000000000000081526004016109c590610f6e565b60405180910390fd5b600073ffffffffffffffffffffffffffffffffffffffff168273ffffffffffffffffffffffffffffffffffffffff161415610a3e576040517f08c379a0000000000000000000000000000000000000000000000000000000008152600401610a3590610eee565b60405180910390fd5b610a49838383610bdf565b60008060008573ffffffffffffffffffffffffffffffffffffffff1673ffffffffffffffffffffffffffffffffffffffff16815260200190815260200160002054905081811015610acf576040517f08c379a0000000000000000000000000000000000000000000000000000000008152600401610ac690610f4e565b60405180910390fd5b8181036000808673ffffffffffffffffffffffffffffffffffffffff1673ffffffffffffffffffffffffffffffffffffffff16815260200190815260200160002081905550816000808573ffffffffffffffffffffffffffffffffffffffff1673ffffffffffffffffffffffffffffffffffffffff1681526020019081526020016000206000828254610b629190611020565b925050819055508273ffffffffffffffffffffffffffffffffffffffff168473ffffffffffffffffffffffffffffffffffffffff167fddf252ad1be2c89b69c2b068fc378daa952ba7f163c4a11628f55a4df523b3ef84604051610bc69190610fce565b60405180910390a3610bd9848484610be4565b50505050565b505050565b505050565b600081359050610bf8816113a2565b92915050565b600081359050610c0d816113b9565b92915050565b600060208284031215610c2557600080fd5b6000610c3384828501610be9565b91505092915050565b60008060408385031215610c4f57600080fd5b6000610c5d85828601610be9565b9250506020610c6e85828601610be9565b9150509250929050565b600080600060608486031215610c8d57600080fd5b6000610c9b86828701610be9565b9350506020610cac86828701610be9565b9250506040610cbd86828701610bfe565b9150509250925092565b60008060408385031215610cda57600080fd5b6000610ce885828601610be9565b9250506020610cf985828601610bfe565b9150509250929050565b600060208284031215610d1557600080fd5b6000610d2384828501610bfe565b91505092915050565b610d3581611076565b82525050565b610d4481611088565b82525050565b6000610d5582611004565b610d5f818561100f565b9350610d6f8185602086016110cb565b610d788161118e565b840191505092915050565b6000610d9060238361100f565b9150610d9b8261119f565b604082019050919050565b6000610db360228361100f565b9150610dbe826111ee565b604082019050919050565b6000610dd6601d8361100f565b9150610de18261123d565b602082019050919050565b6000610df960268361100f565b9150610e0482611266565b604082019050919050565b6000610e1c60258361100f565b9150610e27826112b5565b604082019050919050565b6000610e3f60248361100f565b9150610e4a82611304565b604082019050919050565b6000610e6260258361100f565b9150610e6d82611353565b604082019050919050565b610e81816110b4565b82525050565b610e90816110be565b82525050565b6000602082019050610eab6000830184610d2c565b92915050565b6000602082019050610ec66000830184610d3b565b92915050565b60006020820190508181036000830152610ee68184610d4a565b905092915050565b60006020820190508181036000830152610f0781610d83565b9050919050565b60006020820190508181036000830152610f2781610da6565b9050919050565b60006020820190508181036000830152610f4781610dc9565b9050919050565b60006020820190508181036000830152610f6781610dec565b9050919050565b60006020820190508181036000830152610f8781610e0f565b9050919050565b60006020820190508181036000830152610fa781610e32565b9050919050565b60006020820190508181036000830152610fc781610e55565b9050919050565b6000602082019050610fe36000830184610e78565b92915050565b6000602082019050610ffe6000830184610e87565b92915050565b600081519050919050565b600082825260208201905092915050565b600061102b826110b4565b9150611036836110b4565b9250827fffffffffffffffffffffffffffffffffffffffffffffffffffffffffffffffff0382111561106b5761106a611130565b5b828201905092915050565b600061108182611094565b9050919050565b60008115159050919050565b600073ffffffffffffffffffffffffffffffffffffffff82169050919050565b6000819050919050565b600060ff82169050919050565b60005b838110156110e95780820151818401526020810190506110ce565b838111156110f8576000848401525b50505050565b6000600282049050600182168061111657607f821691505b6020821081141561112a5761112961115f565b5b50919050565b7f4e487b7100000000000000000000000000000000000000000000000000000000600052601160045260246000fd5b7f4e487b7100000000000000000000000000000000000000000000000000000000600052602260045260246000fd5b6000601f19601f8301169050919050565b7f45524332303a207472616e7366657220746f20746865207a65726f206164647260008201527f6573730000000000000000000000000000000000000000000000000000000000602082015250565b7f45524332303a20617070726f766520746f20746865207a65726f20616464726560008201527f7373000000000000000000000000000000000000000000000000000000000000602082015250565b7f45524332303a20696e73756666696369656e7420616c6c6f77616e6365000000600082015250565b7f45524332303a207472616e7366657220616d6f756e742065786365656473206260008201527f616c616e63650000000000000000000000000000000000000000000000000000602082015250565b7f45524332303a207472616e736665722066726f6d20746865207a65726f20616460008201527f6472657373000000000000000000000000000000000000000000000000000000602082015250565b7f45524332303a20617070726f76652066726f6d20746865207a65726f2061646460008201527f7265737300000000000000000000000000000000000000000000000000000000602082015250565b7f45524332303a2064656372656173656420616c6c6f77616e63652062656c6f7760008201527f207a65726f000000000000000000000000000000000000000000000000000000602082015250565b6113ab81611076565b81146113b657600080fd5b50565b6113c2816110b4565b81146113cd57600080fd5b5056fea2646970667358221220e206c87fe8da339baa4b69a1b8f51aa47865d0ff955622a7015d0767ec84e31e64736f6c63430008040033",
  "linkReferences": {},
  "deployedLinkReferences": {}
}