{
  "_format": "hh-sol-artifact-1",
  "contractName": "DogCoin",
  "sourceName": "contracts/DogCoin.sol",
  "abi": [
    {
      "inputs": [
        {
          "internalType": "uint256",
          "name": "total",
          "type": "uint256"
        }
      ],
      "stateMutability": "nonpayable",
      "type": "constructor"
    },
    {
      "anonymous": false,
      "inputs": [
        {
          "indexed": true,
          "internalType": "address",
          "name": "owner",
          "type": "address"
        },
        {
          "indexed": true,
          "internalType": "address",
          "name": "spender",
          "type": "address"
        },
        {
          "indexed": false,
          "internalType": "uint256",
          "name": "value",
          "type": "uint256"
        }
      ],
      "name": "Approval",
      "type": "event"
    },
    {
      "anonymous": false,
      "inputs": [
        {
          "indexed": true,
          "internalType": "address",
          "name": "holder",
          "type": "address"
        }
      ],
      "name": "HolderAdded",
      "type": "event"
    },
    {
      "anonymous": false,
      "inputs": [
        {
          "indexed": true,
          "internalType": "address",
          "name": "holder",
          "type": "address"
        }
      ],
      "name": "HolderRemoved",
      "type": "event"
    },
    {
      "anonymous": false,
      "inputs": [
        {
          "indexed": true,
          "internalType": "address",
          "name": "from",
          "type": "address"
        },
        {
          "indexed": true,
          "internalType": "address",
          "name": "to",
          "type": "address"
        },
        {
          "indexed": false,
          "internalType": "uint256",
          "name": "value",
          "type": "uint256"
        }
      ],
      "name": "Transfer",
      "type": "event"
    },
    {
      "inputs": [
        {
          "internalType": "address",
          "name": "owner",
          "type": "address"
        },
        {
          "internalType": "address",
          "name": "spender",
          "type": "address"
        }
      ],
      "name": "allowance",
      "outputs": [
        {
          "internalType": "uint256",
          "name": "",
          "type": "uint256"
        }
      ],
      "stateMutability": "view",
      "type": "function"
    },
    {
      "inputs": [
        {
          "internalType": "address",
          "name": "spender",
          "type": "address"
        },
        {
          "internalType": "uint256",
          "name": "amount",
          "type": "uint256"
        }
      ],
      "name": "approve",
      "outputs": [
        {
          "internalType": "bool",
          "name": "",
          "type": "bool"
        }
      ],
      "stateMutability": "nonpayable",
      "type": "function"
    },
    {
      "inputs": [
        {
          "internalType": "address",
          "name": "tokenOwner",
          "type": "address"
        }
      ],
      "name": "balanceOf",
      "outputs": [
        {
          "internalType": "uint256",
          "name": "",
          "type": "uint256"
        }
      ],
      "stateMutability": "view",
      "type": "function"
    },
    {
      "inputs": [],
      "name": "decimals",
      "outputs": [
        {
          "internalType": "uint8",
          "name": "",
          "type": "uint8"
        }
      ],
      "stateMutability": "view",
      "type": "function"
    },
    {
      "inputs": [
        {
          "internalType": "address",
          "name": "spender",
          "type": "address"
        },
        {
          "internalType": "uint256",
          "name": "subtractedValue",
          "type": "uint256"
        }
      ],
      "name": "decreaseAllowance",
      "outputs": [
        {
          "internalType": "bool",
          "name": "",
          "type": "bool"
        }
      ],
      "stateMutability": "nonpayable",
      "type": "function"
    },
    {
      "inputs": [
        {
          "internalType": "address",
          "name": "_holder",
          "type": "address"
        }
      ],
      "name": "holdersArrayLocation",
      "outputs": [
        {
          "internalType": "uint256",
          "name": "",
          "type": "uint256"
        }
      ],
      "stateMutability": "view",
      "type": "function"
    },
    {
      "inputs": [],
      "name": "holdersLength",
      "outputs": [
        {
          "internalType": "uint256",
          "name": "",
          "type": "uint256"
        }
      ],
      "stateMutability": "view",
      "type": "function"
    },
    {
      "inputs": [
        {
          "internalType": "address",
          "name": "spender",
          "type": "address"
        },
        {
          "internalType": "uint256",
          "name": "addedValue",
          "type": "uint256"
        }
      ],
      "name": "increaseAllowance",
      "outputs": [
        {
          "internalType": "bool",
          "name": "",
          "type": "bool"
        }
      ],
      "stateMutability": "nonpayable",
      "type": "function"
    },
    {
      "inputs": [],
      "name": "name",
      "outputs": [
        {
          "internalType": "string",
          "name": "",
          "type": "string"
        }
      ],
      "stateMutability": "view",
      "type": "function"
    },
    {
      "inputs": [],
      "name": "symbol",
      "outputs": [
        {
          "internalType": "string",
          "name": "",
          "type": "string"
        }
      ],
      "stateMutability": "view",
      "type": "function"
    },
    {
      "inputs": [],
      "name": "totalSupply",
      "outputs": [
        {
          "internalType": "uint256",
          "name": "",
          "type": "uint256"
        }
      ],
      "stateMutability": "view",
      "type": "function"
    },
    {
      "inputs": [
        {
          "internalType": "address",
          "name": "receiver",
          "type": "address"
        },
        {
          "internalType": "uint256",
          "name": "numTokens",
          "type": "uint256"
        }
      ],
      "name": "transfer",
      "outputs": [
        {
          "internalType": "bool",
          "name": "",
          "type": "bool"
        }
      ],
      "stateMutability": "nonpayable",
      "type": "function"
    },
    {
      "inputs": [
        {
          "internalType": "address",
          "name": "from",
          "type": "address"
        },
        {
          "internalType": "address",
          "name": "to",
          "type": "address"
        },
        {
          "internalType": "uint256",
          "name": "amount",
          "type": "uint256"
        }
      ],
      "name": "transferFrom",
      "outputs": [
        {
          "internalType": "bool",
          "name": "",
          "type": "bool"
        }
      ],
      "stateMutability": "nonpayable",
      "type": "function"
    }
  ],
  "bytecode": "0x60806040523480156200001157600080fd5b5060405162001dac38038062001dac83398181016040528101906200003791906200029e565b6040518060400160405280600781526020017f446f67436f696e000000000000000000000000000000000000000000000000008152506040518060400160405280600381526020017f444f4700000000000000000000000000000000000000000000000000000000008152508160039080519060200190620000bb929190620001d7565b508060049080519060200190620000d4929190620001d7565b50505080600981905550600954600660003373ffffffffffffffffffffffffffffffffffffffff1673ffffffffffffffffffffffffffffffffffffffff168152602001908152602001600020819055506005339080600181540180825580915050600190039060005260206000200160009091909190916101000a81548173ffffffffffffffffffffffffffffffffffffffff021916908373ffffffffffffffffffffffffffffffffffffffff160217905550600580549050600760003373ffffffffffffffffffffffffffffffffffffffff1673ffffffffffffffffffffffffffffffffffffffff168152602001908152602001600020819055505062000353565b828054620001e590620002d4565b90600052602060002090601f01602090048101928262000209576000855562000255565b82601f106200022457805160ff191683800117855562000255565b8280016001018555821562000255579182015b828111156200025457825182559160200191906001019062000237565b5b50905062000264919062000268565b5090565b5b808211156200028357600081600090555060010162000269565b5090565b600081519050620002988162000339565b92915050565b600060208284031215620002b157600080fd5b6000620002c18482850162000287565b91505092915050565b6000819050919050565b60006002820490506001821680620002ed57607f821691505b602082108114156200030457620003036200030a565b5b50919050565b7f4e487b7100000000000000000000000000000000000000000000000000000000600052602260045260246000fd5b6200034481620002ca565b81146200035057600080fd5b50565b611a4980620003636000396000f3fe608060405234801561001057600080fd5b50600436106100cf5760003560e01c8063395093511161008c57806395d89b411161006657806395d89b411461023c578063a457c2d71461025a578063a9059cbb1461028a578063dd62ed3e146102ba576100cf565b806339509351146101ac57806370a08231146101dc578063940477f91461020c576100cf565b806302bdfb5f146100d457806306fdde03146100f2578063095ea7b31461011057806318160ddd1461014057806323b872dd1461015e578063313ce5671461018e575b600080fd5b6100dc6102ea565b6040516100e991906115dd565b60405180910390f35b6100fa6102f7565b60405161010791906114db565b60405180910390f35b61012a60048036038101906101259190611329565b610389565b60405161013791906114c0565b60405180910390f35b6101486103ac565b60405161015591906115dd565b60405180910390f35b610178600480360381019061017391906112da565b6103b6565b60405161018591906114c0565b60405180910390f35b6101966103e5565b6040516101a391906115f8565b60405180910390f35b6101c660048036038101906101c19190611329565b6103ee565b6040516101d391906114c0565b60405180910390f35b6101f660048036038101906101f19190611275565b610498565b60405161020391906115dd565b60405180910390f35b61022660048036038101906102219190611275565b6104e1565b60405161023391906115dd565b60405180910390f35b61024461052a565b60405161025191906114db565b60405180910390f35b610274600480360381019061026f9190611329565b6105bc565b60405161028191906114c0565b60405180910390f35b6102a4600480360381019061029f9190611329565b6106a6565b6040516102b191906114c0565b60405180910390f35b6102d460048036038101906102cf919061129e565b6109d4565b6040516102e191906115dd565b60405180910390f35b6000600580549050905090565b60606003805461030690611741565b80601f016020809104026020016040519081016040528092919081815260200182805461033290611741565b801561037f5780601f106103545761010080835404028352916020019161037f565b820191906000526020600020905b81548152906001019060200180831161036257829003601f168201915b5050505050905090565b600080610394610a5b565b90506103a1818585610a63565b600191505092915050565b6000600954905090565b6000806103c1610a5b565b90506103ce858285610c2e565b6103d9858585610cba565b60019150509392505050565b60006012905090565b6000806103f9610a5b565b905061048d818585600160008673ffffffffffffffffffffffffffffffffffffffff1673ffffffffffffffffffffffffffffffffffffffff16815260200190815260200160002060008973ffffffffffffffffffffffffffffffffffffffff1673ffffffffffffffffffffffffffffffffffffffff16815260200190815260200160002054610488919061162f565b610a63565b600191505092915050565b6000600660008373ffffffffffffffffffffffffffffffffffffffff1673ffffffffffffffffffffffffffffffffffffffff168152602001908152602001600020549050919050565b6000600760008373ffffffffffffffffffffffffffffffffffffffff1673ffffffffffffffffffffffffffffffffffffffff168152602001908152602001600020549050919050565b60606004805461053990611741565b80601f016020809104026020016040519081016040528092919081815260200182805461056590611741565b80156105b25780601f10610587576101008083540402835291602001916105b2565b820191906000526020600020905b81548152906001019060200180831161059557829003601f168201915b5050505050905090565b6000806105c7610a5b565b90506000600160008373ffffffffffffffffffffffffffffffffffffffff1673ffffffffffffffffffffffffffffffffffffffff16815260200190815260200160002060008673ffffffffffffffffffffffffffffffffffffffff1673ffffffffffffffffffffffffffffffffffffffff1681526020019081526020016000205490508381101561068d576040517f08c379a0000000000000000000000000000000000000000000000000000000008152600401610684906115bd565b60405180910390fd5b61069a8286868403610a63565b60019250505092915050565b6000600660003373ffffffffffffffffffffffffffffffffffffffff1673ffffffffffffffffffffffffffffffffffffffff168152602001908152602001600020548211156106f457600080fd5b61074682600660003373ffffffffffffffffffffffffffffffffffffffff1673ffffffffffffffffffffffffffffffffffffffff16815260200190815260200160002054610f3b90919063ffffffff16565b600660003373ffffffffffffffffffffffffffffffffffffffff1673ffffffffffffffffffffffffffffffffffffffff168152602001908152602001600020819055506107db82600660008673ffffffffffffffffffffffffffffffffffffffff1673ffffffffffffffffffffffffffffffffffffffff16815260200190815260200160002054610f5190919063ffffffff16565b600660008573ffffffffffffffffffffffffffffffffffffffff1673ffffffffffffffffffffffffffffffffffffffff168152602001908152602001600020819055506000600760008573ffffffffffffffffffffffffffffffffffffffff1673ffffffffffffffffffffffffffffffffffffffff168152602001908152602001600020541415610913576005839080600181540180825580915050600190039060005260206000200160009091909190916101000a81548173ffffffffffffffffffffffffffffffffffffffff021916908373ffffffffffffffffffffffffffffffffffffffff160217905550600580549050600760008573ffffffffffffffffffffffffffffffffffffffff1673ffffffffffffffffffffffffffffffffffffffff168152602001908152602001600020819055505b6000600660003373ffffffffffffffffffffffffffffffffffffffff1673ffffffffffffffffffffffffffffffffffffffff1681526020019081526020016000205414156109655761096433610f67565b5b8273ffffffffffffffffffffffffffffffffffffffff163373ffffffffffffffffffffffffffffffffffffffff167fddf252ad1be2c89b69c2b068fc378daa952ba7f163c4a11628f55a4df523b3ef846040516109c291906115dd565b60405180910390a36001905092915050565b6000600160008473ffffffffffffffffffffffffffffffffffffffff1673ffffffffffffffffffffffffffffffffffffffff16815260200190815260200160002060008373ffffffffffffffffffffffffffffffffffffffff1673ffffffffffffffffffffffffffffffffffffffff16815260200190815260200160002054905092915050565b600033905090565b600073ffffffffffffffffffffffffffffffffffffffff168373ffffffffffffffffffffffffffffffffffffffff161415610ad3576040517f08c379a0000000000000000000000000000000000000000000000000000000008152600401610aca9061159d565b60405180910390fd5b600073ffffffffffffffffffffffffffffffffffffffff168273ffffffffffffffffffffffffffffffffffffffff161415610b43576040517f08c379a0000000000000000000000000000000000000000000000000000000008152600401610b3a9061151d565b60405180910390fd5b80600160008573ffffffffffffffffffffffffffffffffffffffff1673ffffffffffffffffffffffffffffffffffffffff16815260200190815260200160002060008473ffffffffffffffffffffffffffffffffffffffff1673ffffffffffffffffffffffffffffffffffffffff168152602001908152602001600020819055508173ffffffffffffffffffffffffffffffffffffffff168373ffffffffffffffffffffffffffffffffffffffff167f8c5be1e5ebec7d5bd14f71427d1e84f3dd0314c0f7b2291e5b200ac8c7c3b92583604051610c2191906115dd565b60405180910390a3505050565b6000610c3a84846109d4565b90507fffffffffffffffffffffffffffffffffffffffffffffffffffffffffffffffff8114610cb45781811015610ca6576040517f08c379a0000000000000000000000000000000000000000000000000000000008152600401610c9d9061153d565b60405180910390fd5b610cb38484848403610a63565b5b50505050565b600073ffffffffffffffffffffffffffffffffffffffff168373ffffffffffffffffffffffffffffffffffffffff161415610d2a576040517f08c379a0000000000000000000000000000000000000000000000000000000008152600401610d219061157d565b60405180910390fd5b600073ffffffffffffffffffffffffffffffffffffffff168273ffffffffffffffffffffffffffffffffffffffff161415610d9a576040517f08c379a0000000000000000000000000000000000000000000000000000000008152600401610d91906114fd565b60405180910390fd5b610da5838383611241565b60008060008573ffffffffffffffffffffffffffffffffffffffff1673ffffffffffffffffffffffffffffffffffffffff16815260200190815260200160002054905081811015610e2b576040517f08c379a0000000000000000000000000000000000000000000000000000000008152600401610e229061155d565b60405180910390fd5b8181036000808673ffffffffffffffffffffffffffffffffffffffff1673ffffffffffffffffffffffffffffffffffffffff16815260200190815260200160002081905550816000808573ffffffffffffffffffffffffffffffffffffffff1673ffffffffffffffffffffffffffffffffffffffff1681526020019081526020016000206000828254610ebe919061162f565b925050819055508273ffffffffffffffffffffffffffffffffffffffff168473ffffffffffffffffffffffffffffffffffffffff167fddf252ad1be2c89b69c2b068fc378daa952ba7f163c4a11628f55a4df523b3ef84604051610f2291906115dd565b60405180910390a3610f35848484611246565b50505050565b60008183610f499190611685565b905092915050565b60008183610f5f919061162f565b905092915050565b6000600760008373ffffffffffffffffffffffffffffffffffffffff1673ffffffffffffffffffffffffffffffffffffffff16815260200190815260200160002054905060006005600183610fbc9190611685565b81548110610ff3577f4e487b7100000000000000000000000000000000000000000000000000000000600052603260045260246000fd5b9060005260206000200160009054906101000a900473ffffffffffffffffffffffffffffffffffffffff1690506000600760008373ffffffffffffffffffffffffffffffffffffffff1673ffffffffffffffffffffffffffffffffffffffff16815260200190815260200160002081905550600082146111f957600060016005805490506110819190611685565b90506001836110909190611685565b811461118a57600581815481106110d0577f4e487b7100000000000000000000000000000000000000000000000000000000600052603260045260246000fd5b9060005260206000200160009054906101000a900473ffffffffffffffffffffffffffffffffffffffff16600560018561110a9190611685565b81548110611141577f4e487b7100000000000000000000000000000000000000000000000000000000600052603260045260246000fd5b9060005260206000200160006101000a81548173ffffffffffffffffffffffffffffffffffffffff021916908373ffffffffffffffffffffffffffffffffffffffff1602179055505b60058054806111c2577f4e487b7100000000000000000000000000000000000000000000000000000000600052603160045260246000fd5b6001900381819060005260206000200160006101000a81549073ffffffffffffffffffffffffffffffffffffffff02191690559055505b8273ffffffffffffffffffffffffffffffffffffffff167fd9bc583d1445615d8b795b7374f03ff79efa83b6359a91331efd95e4cf023ab660405160405180910390a2505050565b505050565b505050565b60008135905061125a816119e5565b92915050565b60008135905061126f816119fc565b92915050565b60006020828403121561128757600080fd5b60006112958482850161124b565b91505092915050565b600080604083850312156112b157600080fd5b60006112bf8582860161124b565b92505060206112d08582860161124b565b9150509250929050565b6000806000606084860312156112ef57600080fd5b60006112fd8682870161124b565b935050602061130e8682870161124b565b925050604061131f86828701611260565b9150509250925092565b6000806040838503121561133c57600080fd5b600061134a8582860161124b565b925050602061135b85828601611260565b9150509250929050565b61136e816116cb565b82525050565b600061137f82611613565b611389818561161e565b935061139981856020860161170e565b6113a2816117d1565b840191505092915050565b60006113ba60238361161e565b91506113c5826117e2565b604082019050919050565b60006113dd60228361161e565b91506113e882611831565b604082019050919050565b6000611400601d8361161e565b915061140b82611880565b602082019050919050565b600061142360268361161e565b915061142e826118a9565b604082019050919050565b600061144660258361161e565b9150611451826118f8565b604082019050919050565b600061146960248361161e565b915061147482611947565b604082019050919050565b600061148c60258361161e565b915061149782611996565b604082019050919050565b6114ab816116f7565b82525050565b6114ba81611701565b82525050565b60006020820190506114d56000830184611365565b92915050565b600060208201905081810360008301526114f58184611374565b905092915050565b60006020820190508181036000830152611516816113ad565b9050919050565b60006020820190508181036000830152611536816113d0565b9050919050565b60006020820190508181036000830152611556816113f3565b9050919050565b6000602082019050818103600083015261157681611416565b9050919050565b6000602082019050818103600083015261159681611439565b9050919050565b600060208201905081810360008301526115b68161145c565b9050919050565b600060208201905081810360008301526115d68161147f565b9050919050565b60006020820190506115f260008301846114a2565b92915050565b600060208201905061160d60008301846114b1565b92915050565b600081519050919050565b600082825260208201905092915050565b600061163a826116f7565b9150611645836116f7565b9250827fffffffffffffffffffffffffffffffffffffffffffffffffffffffffffffffff0382111561167a57611679611773565b5b828201905092915050565b6000611690826116f7565b915061169b836116f7565b9250828210156116ae576116ad611773565b5b828203905092915050565b60006116c4826116d7565b9050919050565b60008115159050919050565b600073ffffffffffffffffffffffffffffffffffffffff82169050919050565b6000819050919050565b600060ff82169050919050565b60005b8381101561172c578082015181840152602081019050611711565b8381111561173b576000848401525b50505050565b6000600282049050600182168061175957607f821691505b6020821081141561176d5761176c6117a2565b5b50919050565b7f4e487b7100000000000000000000000000000000000000000000000000000000600052601160045260246000fd5b7f4e487b7100000000000000000000000000000000000000000000000000000000600052602260045260246000fd5b6000601f19601f8301169050919050565b7f45524332303a207472616e7366657220746f20746865207a65726f206164647260008201527f6573730000000000000000000000000000000000000000000000000000000000602082015250565b7f45524332303a20617070726f766520746f20746865207a65726f20616464726560008201527f7373000000000000000000000000000000000000000000000000000000000000602082015250565b7f45524332303a20696e73756666696369656e7420616c6c6f77616e6365000000600082015250565b7f45524332303a207472616e7366657220616d6f756e742065786365656473206260008201527f616c616e63650000000000000000000000000000000000000000000000000000602082015250565b7f45524332303a207472616e736665722066726f6d20746865207a65726f20616460008201527f6472657373000000000000000000000000000000000000000000000000000000602082015250565b7f45524332303a20617070726f76652066726f6d20746865207a65726f2061646460008201527f7265737300000000000000000000000000000000000000000000000000000000602082015250565b7f45524332303a2064656372656173656420616c6c6f77616e63652062656c6f7760008201527f207a65726f000000000000000000000000000000000000000000000000000000602082015250565b6119ee816116b9565b81146119f957600080fd5b50565b611a05816116f7565b8114611a1057600080fd5b5056fea264697066735822122019d3eca8c6f4b9e770a65141e662e894caa52e49f3ae59222dc33312c447ce6264736f6c63430008040033",
  "linkReferences": {},
  "deployedLinkReferences": {}
}